{
  "contractName": "DieRoll",
  "abi": [
    {
      "inputs": [],
      "payable": false,
      "stateMutability": "nonpayable",
      "type": "constructor"
    },
    {
      "anonymous": false,
      "inputs": [
        {
          "indexed": false,
          "internalType": "uint256",
          "name": "id",
          "type": "uint256"
        },
        {
          "indexed": false,
          "internalType": "string",
          "name": "name",
          "type": "string"
        },
        {
          "indexed": false,
          "internalType": "uint256",
          "name": "price",
          "type": "uint256"
        },
        {
          "indexed": false,
          "internalType": "uint256",
          "name": "roll",
          "type": "uint256"
        },
        {
          "indexed": false,
          "internalType": "address payable",
          "name": "owner",
          "type": "address"
        },
        {
          "indexed": false,
          "internalType": "bool",
          "name": "purchased",
          "type": "bool"
        }
      ],
      "name": "BetStats",
      "type": "event"
    },
    {
      "anonymous": false,
      "inputs": [
        {
          "indexed": false,
          "internalType": "uint256",
          "name": "id",
          "type": "uint256"
        },
        {
          "indexed": false,
          "internalType": "string",
          "name": "name",
          "type": "string"
        },
        {
          "indexed": false,
          "internalType": "uint256",
          "name": "price",
          "type": "uint256"
        },
        {
          "indexed": false,
          "internalType": "uint256",
          "name": "sides",
          "type": "uint256"
        },
        {
          "indexed": false,
          "internalType": "uint256",
          "name": "currentBet",
          "type": "uint256"
        },
        {
          "indexed": false,
          "internalType": "uint256",
          "name": "entry",
          "type": "uint256"
        },
        {
          "indexed": false,
          "internalType": "address payable",
          "name": "owner",
          "type": "address"
        },
        {
          "indexed": false,
          "internalType": "bool",
          "name": "purchased",
          "type": "bool"
        }
      ],
      "name": "ProductCreated",
      "type": "event"
    },
    {
      "constant": true,
      "inputs": [],
      "name": "currentBet",
      "outputs": [
        {
          "internalType": "uint8",
          "name": "",
          "type": "uint8"
        }
      ],
      "payable": false,
      "stateMutability": "view",
      "type": "function"
    },
    {
      "constant": true,
      "inputs": [],
      "name": "entry",
      "outputs": [
        {
          "internalType": "uint256",
          "name": "",
          "type": "uint256"
        }
      ],
      "payable": false,
      "stateMutability": "view",
      "type": "function"
    },
    {
      "constant": true,
      "inputs": [],
      "name": "name",
      "outputs": [
        {
          "internalType": "string",
          "name": "",
          "type": "string"
        }
      ],
      "payable": false,
      "stateMutability": "view",
      "type": "function"
    },
    {
      "constant": true,
      "inputs": [],
      "name": "productCount",
      "outputs": [
        {
          "internalType": "uint256",
          "name": "",
          "type": "uint256"
        }
      ],
      "payable": false,
      "stateMutability": "view",
      "type": "function"
    },
    {
      "constant": true,
      "inputs": [
        {
          "internalType": "uint256",
          "name": "",
          "type": "uint256"
        }
      ],
      "name": "products",
      "outputs": [
        {
          "internalType": "uint256",
          "name": "id",
          "type": "uint256"
        },
        {
          "internalType": "string",
          "name": "name",
          "type": "string"
        },
        {
          "internalType": "uint256",
          "name": "price",
          "type": "uint256"
        },
        {
          "internalType": "uint256",
          "name": "sides",
          "type": "uint256"
        },
        {
          "internalType": "uint256",
          "name": "currentBet",
          "type": "uint256"
        },
        {
          "internalType": "uint256",
          "name": "entry",
          "type": "uint256"
        },
        {
          "internalType": "uint256",
          "name": "roll",
          "type": "uint256"
        },
        {
          "internalType": "address payable",
          "name": "owner",
          "type": "address"
        },
        {
          "internalType": "bool",
          "name": "purchased",
          "type": "bool"
        }
      ],
      "payable": false,
      "stateMutability": "view",
      "type": "function"
    },
    {
      "constant": true,
      "inputs": [],
      "name": "sides",
      "outputs": [
        {
          "internalType": "uint256",
          "name": "",
          "type": "uint256"
        }
      ],
      "payable": false,
      "stateMutability": "view",
      "type": "function"
    },
    {
      "constant": false,
      "inputs": [
        {
          "internalType": "uint256",
          "name": "_id",
          "type": "uint256"
        }
      ],
      "name": "rollDie",
      "outputs": [],
      "payable": true,
      "stateMutability": "payable",
      "type": "function"
    },
    {
      "constant": false,
      "inputs": [
        {
          "internalType": "string",
          "name": "_name",
          "type": "string"
        },
        {
          "internalType": "uint256",
          "name": "_price",
          "type": "uint256"
        },
        {
          "internalType": "uint256",
          "name": "_sides",
          "type": "uint256"
        },
        {
          "internalType": "uint256",
          "name": "_currentBet",
          "type": "uint256"
        },
        {
          "internalType": "uint256",
          "name": "_entry",
          "type": "uint256"
        }
      ],
      "name": "createProduct",
      "outputs": [],
      "payable": true,
      "stateMutability": "payable",
      "type": "function"
    }
  ],
  "bytecode": "0x6080604052600060015560006002556000600360006101000a81548160ff021916908360ff160217905550600060045560006005553480156200004157600080fd5b506040518060400160405280600e81526020017f416c6927732044696520526f6c6c000000000000000000000000000000000000815250600090805190602001906200008f9291906200009e565b5060066007819055506200014d565b828054600181600116156101000203166002900490600052602060002090601f016020900481019282601f10620000e157805160ff191683800117855562000112565b8280016001018555821562000112579182015b8281111562000111578251825591602001919060010190620000f4565b5b50905062000121919062000125565b5090565b6200014a91905b80821115620001465760008160009055506001016200012c565b5090565b90565b61115a806200015d6000396000f3fe60806040526004361061007b5760003560e01c8063879e11d91161004e578063879e11d91461033a578063d3522d5114610368578063d504cb6514610393578063e0f6ef87146103c45761007b565b806306fdde0314610080578063294bf3351461011057806367f239dd146101f35780637acc0b201461021e575b600080fd5b34801561008c57600080fd5b506100956103ef565b6040518080602001828103825283818151815260200191508051906020019080838360005b838110156100d55780820151818401526020810190506100ba565b50505050905090810190601f1680156101025780820380516001836020036101000a031916815260200191505b509250505060405180910390f35b6101f1600480360360a081101561012657600080fd5b810190808035906020019064010000000081111561014357600080fd5b82018360208201111561015557600080fd5b8035906020019184600183028401116401000000008311171561017757600080fd5b91908080601f016020809104026020016040519081016040528093929190818152602001838380828437600081840152601f19601f8201169050808301925050505050505091929192908035906020019092919080359060200190929190803590602001909291908035906020019092919050505061048d565b005b3480156101ff57600080fd5b5061020861073d565b6040518082815260200191505060405180910390f35b34801561022a57600080fd5b506102576004803603602081101561024157600080fd5b8101908080359060200190929190505050610743565b604051808a8152602001806020018981526020018881526020018781526020018681526020018581526020018473ffffffffffffffffffffffffffffffffffffffff1673ffffffffffffffffffffffffffffffffffffffff1681526020018315151515815260200182810382528a818151815260200191508051906020019080838360005b838110156102f75780820151818401526020810190506102dc565b50505050905090810190601f1680156103245780820380516001836020036101000a031916815260200191505b509a505050505050505050505060405180910390f35b6103666004803603602081101561035057600080fd5b8101908080359060200190929190505050610856565b005b34801561037457600080fd5b5061037d610e3d565b6040518082815260200191505060405180910390f35b34801561039f57600080fd5b506103a8610e43565b604051808260ff1660ff16815260200191505060405180910390f35b3480156103d057600080fd5b506103d9610e56565b6040518082815260200191505060405180910390f35b60008054600181600116156101000203166002900480601f0160208091040260200160405190810160405280929190818152602001828054600181600116156101000203166002900480156104855780601f1061045a57610100808354040283529160200191610485565b820191906000526020600020905b81548152906001019060200180831161046857829003601f168201915b505050505081565b600085511161049b57600080fd5b600084116104a857600080fd5b600283116104b557600080fd5b600081116104c257600080fd5b8183101580156104d25750600082115b6104db57600080fd5b833410156104e857600080fd5b6001600081548092919060010191905055506040518061012001604052806001548152602001868152602001858152602001848152602001838152602001828152602001600081526020013373ffffffffffffffffffffffffffffffffffffffff1681526020016000151581525060066000600154815260200190815260200160002060008201518160000155602082015181600101908051906020019061059192919061101c565b5060408201518160020155606082015181600301556080820151816004015560a0820151816005015560c0820151816006015560e08201518160070160006101000a81548173ffffffffffffffffffffffffffffffffffffffff021916908373ffffffffffffffffffffffffffffffffffffffff1602179055506101008201518160070160146101000a81548160ff0219169083151502179055509050507f39b2bed41ab12f2a05f8a9ba76bf8ade9947ea16574370af8f3a73c4e8d59235600154868686868633600060405180898152602001806020018881526020018781526020018681526020018581526020018473ffffffffffffffffffffffffffffffffffffffff1673ffffffffffffffffffffffffffffffffffffffff16815260200183151515158152602001828103825289818151815260200191508051906020019080838360005b838110156106f55780820151818401526020810190506106da565b50505050905090810190601f1680156107225780820380516001836020036101000a031916815260200191505b50995050505050505050505060405180910390a15050505050565b60045481565b6006602052806000526040600020600091509050806000015490806001018054600181600116156101000203166002900480601f0160208091040260200160405190810160405280929190818152602001828054600181600116156101000203166002900480156107f55780601f106107ca576101008083540402835291602001916107f5565b820191906000526020600020905b8154815290600101906020018083116107d857829003601f168201915b5050505050908060020154908060030154908060040154908060050154908060060154908060070160009054906101000a900473ffffffffffffffffffffffffffffffffffffffff16908060070160149054906101000a900460ff16905089565b61085e61109c565b600660008381526020019081526020016000206040518061012001604052908160008201548152602001600182018054600181600116156101000203166002900480601f0160208091040260200160405190810160405280929190818152602001828054600181600116156101000203166002900480156109205780601f106108f557610100808354040283529160200191610920565b820191906000526020600020905b81548152906001019060200180831161090357829003601f168201915b5050505050815260200160028201548152602001600382015481526020016004820154815260200160058201548152602001600682015481526020016007820160009054906101000a900473ffffffffffffffffffffffffffffffffffffffff1673ffffffffffffffffffffffffffffffffffffffff1673ffffffffffffffffffffffffffffffffffffffff1681526020016007820160149054906101000a900460ff161515151581525050905060008160e001519050600082600001511180156109f15750600154826000015111155b6109fa57600080fd5b8160a00151341015610a0b57600080fd5b81610100015115610a1b57600080fd5b3373ffffffffffffffffffffffffffffffffffffffff168173ffffffffffffffffffffffffffffffffffffffff161415610a5457600080fd5b610a5d83610e5c565b6007600082825401925050819055506001826060015160075481610a7d57fe5b06016007819055506007548260c0018181525050816080015160075410610c03576001826101000190151590811515815250503373ffffffffffffffffffffffffffffffffffffffff166108fc83604001519081150290604051600060405180830381858888f19350505050158015610afa573d6000803e3d6000fd5b507f656437c18e1d2682ed8d76090460fdaac962e14246deb2c18c0905579ce7e927600154836020015184604001518560c0015133600160405180878152602001806020018681526020018581526020018473ffffffffffffffffffffffffffffffffffffffff1673ffffffffffffffffffffffffffffffffffffffff16815260200183151515158152602001828103825287818151815260200191508051906020019080838360005b83811015610bbf578082015181840152602081019050610ba4565b50505050905090810190601f168015610bec5780820380516001836020036101000a031916815260200191505b5097505050505050505060405180910390a1610d19565b6000826101000190151590811515815250507f656437c18e1d2682ed8d76090460fdaac962e14246deb2c18c0905579ce7e927600154836020015184604001518560c0015133600060405180878152602001806020018681526020018581526020018473ffffffffffffffffffffffffffffffffffffffff1673ffffffffffffffffffffffffffffffffffffffff16815260200183151515158152602001828103825287818151815260200191508051906020019080838360005b83811015610cd9578082015181840152602081019050610cbe565b50505050905090810190601f168015610d065780820380516001836020036101000a031916815260200191505b5097505050505050505060405180910390a15b8073ffffffffffffffffffffffffffffffffffffffff166108fc349081150290604051600060405180830381858888f19350505050158015610d5f573d6000803e3d6000fd5b508160066000858152602001908152602001600020600082015181600001556020820151816001019080519060200190610d9a92919061101c565b5060408201518160020155606082015181600301556080820151816004015560a0820151816005015560c0820151816006015560e08201518160070160006101000a81548173ffffffffffffffffffffffffffffffffffffffff021916908373ffffffffffffffffffffffffffffffffffffffff1602179055506101008201518160070160146101000a81548160ff021916908315150217905550905050505050565b60025481565b600360009054906101000a900460ff1681565b60015481565b6000610e6661109c565b600660008481526020019081526020016000206040518061012001604052908160008201548152602001600182018054600181600116156101000203166002900480601f016020809104026020016040519081016040528092919081815260200182805460018160011615610100020316600290048015610f285780601f10610efd57610100808354040283529160200191610f28565b820191906000526020600020905b815481529060010190602001808311610f0b57829003601f168201915b5050505050815260200160028201548152602001600382015481526020016004820154815260200160058201548152602001600682015481526020016007820160009054906101000a900473ffffffffffffffffffffffffffffffffffffffff1673ffffffffffffffffffffffffffffffffffffffff1673ffffffffffffffffffffffffffffffffffffffff1681526020016007820160149054906101000a900460ff1615151515815250509050444282606001516040516020018084815260200183815260200182815260200193505050506040516020818303038152906040528051906020012060001c915050919050565b828054600181600116156101000203166002900490600052602060002090601f016020900481019282601f1061105d57805160ff191683800117855561108b565b8280016001018555821561108b579182015b8281111561108a57825182559160200191906001019061106f565b5b5090506110989190611100565b5090565b60405180610120016040528060008152602001606081526020016000815260200160008152602001600081526020016000815260200160008152602001600073ffffffffffffffffffffffffffffffffffffffff1681526020016000151581525090565b61112291905b8082111561111e576000816000905550600101611106565b5090565b9056fea265627a7a72315820afcdcaaeada081f5aed5d06e26e175cbe96da5de3125383ddbd5292ed427d63a64736f6c63430005100032",
  "source": "pragma solidity ^0.5.0;\n\ncontract DieRoll {\n    string public name;\n    uint public productCount = 0;\n    uint public sides =0;\n    uint8  public currentBet = 0;\n    uint  public entry = 0;\n    uint  roll = 0;\n    mapping(uint => Product) public products;\n\n\tuint private randomFactor;\n\n    struct Product {\n        uint id;\n        string name;\n        uint price;\n        uint sides;\n        uint  currentBet;  \n        uint entry;\n        uint roll;\n        address payable owner;\n        bool purchased;\n    }\n\n    event ProductCreated(\n        uint id,\n        string name,\n        uint price,\n        uint sides,\n        uint  currentBet,\n        uint entry,\n        address payable owner,\n        bool purchased\n    );\n\n   \n  event BetStats(\n    uint id,\n    string name,\n    uint price,\n    uint roll,\n    address payable owner,\n    bool purchased\n    );\n\n    constructor() public {\n        name = \"Ali's Die Roll\";\n        randomFactor = 6;\n    }\n    // function random() private view returns (uint) {\n    //    \tuint256 blockValue = uint256(blockhash(block.number-1 + block.timestamp));\n    //     blockValue = blockValue + uint256(randomFactor);\n    //     return uint(blockValue + 1);\n    // }\n    function random(uint _id) private view returns (uint) {\n        Product memory _product = products[_id];\n        // sha3 and now have been deprecated\n        return uint(keccak256(abi.encodePacked(block.difficulty, block.timestamp, _product.sides)));\n        // convert hash to integer\n        // players is an array of entrants\n        \n    }\n    \n    function rollDie(uint _id) public payable{\n        // Fetch the product\n        Product memory _product = products[_id];\n        // Fetch the owner\n        address payable _seller = _product.owner;\n        // Make sure the product has a valid id\n        require(_product.id > 0 && _product.id <= productCount);\n        // Require that there is enough Ether in the transaction\n        require(msg.value >= _product.entry);\n        // Require that the product has not been purchased already\n        require(!_product.purchased);\n        // Require that the buyer is not the seller\n        require(_seller != msg.sender);\n        // Transfer ownership to the buyer\n        \n        // _product.sides = random();\n        randomFactor += random(_id);\n        randomFactor = (randomFactor % _product.sides) + 1 ;\n        _product.roll = randomFactor;\n            if(randomFactor >= _product.currentBet){\n                _product.purchased = true;\n                // _product.owner = msg.sender; \n                \n                // Pay the seller by sending them Ether\n                address(msg.sender).transfer(_product.price);\n                // Trigger an event\n                emit BetStats(productCount, _product.name, _product.price, _product.roll, msg.sender, true);\n            }else{\n                _product.purchased = false;\n                emit BetStats(productCount, _product.name, _product.price, _product.roll, msg.sender, false);\n            }\n            address(_seller).transfer(msg.value);\n            products[_id] = _product;\n    }\n\t\n    \n    function createProduct(string memory _name, uint _price, uint _sides, uint _currentBet, uint _entry) public payable {\n    // Require a valid name\n    require(bytes(_name).length > 0);\n    // Require a valid price\n    require(_price > 0);\n     // Require a valid sides\n    require(_sides > 2);\n      // Require a valid sides\n    require(_entry > 0);\n      // Require a valid sides\n    require(_sides >= _currentBet && _currentBet > 0);\n    // Increment product count\n    require(msg.value >= _price);\n    productCount ++;\n    // Create the product\n    products[productCount] = Product(productCount, _name, _price, _sides, _currentBet, _entry, 0, msg.sender, false);\n    // Trigger an event\n    emit ProductCreated(productCount, _name, _price, _sides, _currentBet, _entry, msg.sender, false);\n}\n\n\n\n\n}",
  "sourcePath": "/Users/egemen/Desktop/last resort/starter_kit-master/src/contracts/DieRoll.sol",
  "compiler": {
    "name": "solc",
    "version": "0.5.16+commit.9c3226ce.Emscripten.clang"
  },
  "schemaVersion": "3.4.3",
  "updatedAt": "2021-12-15T22:52:14.505Z",
  "devdoc": {
    "methods": {}
  },
  "userdoc": {
    "methods": {}
  }
}